{
  "contractName": "BlockchainForPeace",
  "abi": [
    {
      "constant": true,
      "inputs": [],
      "name": "charity",
      "outputs": [
        {
          "name": "",
          "type": "address"
        }
      ],
      "payable": false,
      "stateMutability": "view",
      "type": "function"
    },
    {
      "constant": true,
      "inputs": [
        {
          "name": "",
          "type": "address"
        }
      ],
      "name": "donors",
      "outputs": [
        {
          "name": "value",
          "type": "uint256"
        }
      ],
      "payable": false,
      "stateMutability": "view",
      "type": "function"
    },
    {
      "constant": true,
      "inputs": [],
      "name": "raised",
      "outputs": [
        {
          "name": "",
          "type": "uint256"
        }
      ],
      "payable": false,
      "stateMutability": "view",
      "type": "function"
    },
    {
      "inputs": [
        {
          "name": "_charity",
          "type": "address"
        }
      ],
      "payable": false,
      "stateMutability": "nonpayable",
      "type": "constructor"
    },
    {
      "anonymous": false,
      "inputs": [
        {
          "indexed": true,
          "name": "from",
          "type": "address"
        },
        {
          "indexed": false,
          "name": "amount",
          "type": "uint256"
        },
        {
          "indexed": false,
          "name": "message",
          "type": "string"
        }
      ],
      "name": "Donate",
      "type": "event"
    },
    {
      "constant": false,
      "inputs": [],
      "name": "fallback",
      "outputs": [],
      "payable": true,
      "stateMutability": "payable",
      "type": "function"
    },
    {
      "constant": false,
      "inputs": [
        {
          "name": "_message",
          "type": "string"
        }
      ],
      "name": "messageForPeace",
      "outputs": [],
      "payable": true,
      "stateMutability": "payable",
      "type": "function"
    }
  ],
  "bytecode": "0x608060405234801561001057600080fd5b506040516020806106688339810180604052810190808051906020019092919050505080600160006101000a81548173ffffffffffffffffffffffffffffffffffffffff021916908373ffffffffffffffffffffffffffffffffffffffff160217905550506105e4806100846000396000f30060806040526004361061006d576000357c0100000000000000000000000000000000000000000000000000000000900463ffffffff168063552079dc14610072578063934aa0231461007c578063a9b5ae83146100d3578063ca0cdea81461012f578063f0ea4bfc14610186575b600080fd5b61007a6101b1565b005b34801561008857600080fd5b50610091610272565b604051808273ffffffffffffffffffffffffffffffffffffffff1673ffffffffffffffffffffffffffffffffffffffff16815260200191505060405180910390f35b61012d600480360381019080803590602001908201803590602001908080601f0160208091040260200160405190810160405280939291908181526020018383808284378201915050505050509192919290505050610298565b005b34801561013b57600080fd5b50610170600480360381019080803573ffffffffffffffffffffffffffffffffffffffff1690602001909291905050506104ef565b6040518082815260200191505060405180910390f35b34801561019257600080fd5b5061019b61050d565b6040518082815260200191505060405180910390f35b34600260003373ffffffffffffffffffffffffffffffffffffffff1673ffffffffffffffffffffffffffffffffffffffff16815260200190815260200160002060010181905550346000808282540192505081905550600160009054906101000a900473ffffffffffffffffffffffffffffffffffffffff1673ffffffffffffffffffffffffffffffffffffffff166108fc349081150290604051600060405180830381858888f1935050505015801561026f573d6000803e3d6000fd5b50565b600160009054906101000a900473ffffffffffffffffffffffffffffffffffffffff1681565b34600260003373ffffffffffffffffffffffffffffffffffffffff1673ffffffffffffffffffffffffffffffffffffffff168152602001908152602001600020600101600082825401925050819055506000600260003373ffffffffffffffffffffffffffffffffffffffff1673ffffffffffffffffffffffffffffffffffffffff168152602001908152602001600020600101541415151561033a57600080fd5b600260003373ffffffffffffffffffffffffffffffffffffffff1673ffffffffffffffffffffffffffffffffffffffff1681526020019081526020016000206000018190806001815401808255809150509060018203906000526020600020016000909192909190915090805190602001906103b7929190610513565b5050600160009054906101000a900473ffffffffffffffffffffffffffffffffffffffff1673ffffffffffffffffffffffffffffffffffffffff166108fc349081150290604051600060405180830381858888f19350505050158015610421573d6000803e3d6000fd5b503460008082825401925050819055503373ffffffffffffffffffffffffffffffffffffffff167f4c4cf652c6f14d29f3d8b821ba41309afba5bf3a6f10b64d61665a235049711d34836040518083815260200180602001828103825283818151815260200191508051906020019080838360005b838110156104b1578082015181840152602081019050610496565b50505050905090810190601f1680156104de5780820380516001836020036101000a031916815260200191505b50935050505060405180910390a250565b60026020528060005260406000206000915090508060010154905081565b60005481565b828054600181600116156101000203166002900490600052602060002090601f016020900481019282601f1061055457805160ff1916838001178555610582565b82800160010185558215610582579182015b82811115610581578251825591602001919060010190610566565b5b50905061058f9190610593565b5090565b6105b591905b808211156105b1576000816000905550600101610599565b5090565b905600a165627a7a72305820d01ae1dca4e8371f4959586eb622a4c3643972d3ad10cb7febdee808198e90990029",
  "source": "pragma solidity ^0.4.24;\n\ncontract BlockchainForPeace {\n    \n\n    // to see the total raised \n    uint public raised;\n    address public charity; \n    \n    //struct for the donation \n    struct Donation {\n        string[] message; \n        uint value; \n    }\n    //mapping an address to the donation struct \n    mapping (address => Donation) public donors;\n    event Donate(address indexed from, uint amount, string message);\n    \n    //constructor to initiate the address of the charity being donated to\n    constructor (address _charity) public {\n        charity = _charity;\n    }\n   \n    // payable function which auto trasnfers money to charity address, collects the value and increases the total value counter.\n    function fallback() payable public {\n     donors[msg.sender].value = msg.value; \n     raised += msg.value;\n     charity.transfer(msg.value);\n    }\n    // optional message to be sent with donation, peace message.\n    function messageForPeace(string _message) payable public {\n        donors[msg.sender].value += msg.value;\n        require(donors[msg.sender].value != 0);\n        donors[msg.sender].message.push(_message);\n        charity.transfer(msg.value);\n        raised += msg.value;\n        emit Donate(msg.sender, msg.value, _message);\n    }\n    \n}",
  "sourcePath": "/Users/jesse/Desktop/moodles/hacklabMeetup/BFP-contract-master/truffle box react/contracts/BlockchainForPeace.sol",
  "compiler": {
    "name": "solc",
    "version": "0.4.24+commit.e67f0147.Emscripten.clang"
  },
  "schemaVersion": "2.0.1",
  "updatedAt": "2018-08-14T00:32:42.056Z"
}